:02000002D0002C
:1040000000400D0074510D00000006000C00050179
:084010000401BD0B00000000DB
:04401800304F0D0018
:10401C0009480A49884208B505D0094A824202D0AB
:10402C00121A00F03DFF0748074A0021121A00F04F
:10403C0045FF014808BD00BFD8E50320E4500D0042
:10404C0040E6032040E60320F0E7032070B5074E5E
:10405C00074C00F0AFFBA41BA4080025A54200D11F
:10406C0070BD56F8043B98470135F7E7B8500D0082
:10407C00DC500D0000F01BB808B500F02BF8BDE8C3
:10408C00084000F059BB00F00BBA00F011BA0078F0
:10409C00B0FA80F04009704701230370704710B5E7
:1040AC000446006808B100F003FA204610BD08B5BC
:1040BC0000F08AFC4FF4165100F076FC00F084FC02
:1040CC0000F076FC0028F9D000F0AAFEBDE808400C
:1040DC0000F060BD10B500F077FC03681B699847D1
:1040EC0058B300F071FC03685B699847044600F014
:1040FC0097FE2A2100F084FD00F092FE0368E1B2E5
:10410C009B68984700F08CFE00F081FD4FF47A70AC
:10411C0000F0D8FA00F084FE2A21012200F069FD9B
:10412C0000F07EFE03685B699847044600F04CFC87
:10413C00E1B2BDE8104000F084BA10BD38B50A4CAD
:10414C000A4BA360002503202560A580A57100F013
:10415C0013F90749074A204600F08AFE2946012038
:10416C00BDE8384000F018B944E603200000FFFF1A
:10417C00AB400D0040E6032008B5024B1B689B6862
:10418C00019308BD6802030008B5024B1B68DB688D
:10419C00019308BD6802030008B5024B1B685B68FD
:1041AC00019308BD1802030008B5024B1B685B693C
:1041BC00019308BD1802030008B5024B1B685B6C29
:1041CC00019308BD4802030008B5024B1B689B6CA9
:1041DC00019308BD4802030008B5024B1B685B69DC
:1041EC00019308BD6402030008B5024B1B681B68F1
:1041FC00019308BD3C02030008B5024B1B68DB6849
:10420C00019308BD3C02030008B5024B1B681B69F7
:10421C00019308BD3C02030008B5024B1B685B69A7
:10422C00019308BD3C02030008B5024B1B689B6957
:10423C00019308BD3C02030008B5024B1B68DB6907
:10424C00019308BD3C02030008B5024B1B689B6A36
:10425C00019308BD3C02030008B5024B1B68DB68E8
:10426C00019308BD2802030008B5024B1B689B692B
:10427C00019308BD2802030008B5024B1B68DB69DB
:10428C00019308BD2802030008B5024B1B681B6A8A
:10429C00019308BD2802030008B5024B1B685B6A3A
:1042AC00019308BD2802030008B5024B1B689B6AEA
:1042BC00019308BD2802030008B5024B1B68DB6A9A
:1042CC00019308BD2802030008B5024B1B681B6B49
:1042DC00019308BD2802030008B5024B1B681B6C38
:1042EC00019308BD2802030008B5024B1B681B6D27
:1042FC00019308BD2802030008B5024B1B681B681C
:10430C00019308BD4C02030008B5024B1B685B68A7
:10431C00019308BD4C02030008B5024B1B681B69D6
:10432C00019308BD4C02030008B5024B1B685B6986
:10433C00019308BD4C02030008B5024B1B689B6936
:10434C00019308BD4C02030008B5024B1B68DB69E6
:10435C00019308BD4C02030008B5024B1B681B6A95
:10436C00019308BD4C02030008B5024B1B689B6A05
:10437C00019308BD4C02030008B5024B1B685B6837
:10438C00019308BD2002030008B5024B1B685B6952
:10439C00019308BD2002030008B5024B1B68DB6AC1
:1043AC00019308BD2002030008B5034B1B68D3F82A
:1043BC008830019308BD00002002030008B5034BB0
:1043CC001B68D3F89430019308BD00002002030051
:1043DC0008B5024B1B685B68019308BD40020300E3
:1043EC0008B5024B1B689B68019308BD4002030093
:1043FC0008B5024B1B68DB68019308BD4002030043
:10440C0008B5024B1B681B69019308BD40020300F1
:10441C0008B5024B1B685B69019308BD40020300A1
:10442C0008B5024B1B689B69019308BD4002030051
:10443C0008B5024B1B68DB69019308BD4002030001
:10444C0008B5024B1B681B6A019308BD40020300B0
:10445C0008B5024B1B681B6B019308BD400203009F
:10446C0008B5024B1B685B6B019308BD400203004F
:10447C0008B5024B1B681B6C019308BD400203007E
:10448C0008B5024B1B685B6C019308BD400203002E
:10449C0008B5024B1B68DB6B019308BD440203009B
:1044AC0008B5024B1B681B68019308BD1C02030076
:1044BC0008B5024B1B685B68019308BD1C02030026
:1044CC0008B5024B1B685B6C019308BD1C02030012
:1044DC00002240681146FFF7B3BF00224068114626
:1044EC00FFF7BEBF40680022FFF7B2BF4068002252
:1044FC0081F00101FFF79CBF002340681A46194662
:10450C00FFF78EBF002340681A461946FFF780BF9D
:10451C00002240681146FFF773BF00224068114625
:10452C00FFF75EBF406800220221FFF761BF002346
:10453C0040681A46FFF74CBF024B03225A60024AEE
:10454C001A60704750E603204C4F0D0010B5094B14
:10455C00094C022200201A60084B2060A080A07138
:10456C00A360FFF709FF2046054A0649BDE8104045
:10457C0000F07EBC64E6032058E603200000FFFF39
:10458C0040E60320AB400D0010B50446006808B1AE
:10459C00FFF71AFE204610BD10B58368044613B110
:1045AC00032201469847204610BD000010B5064C6A
:1045BC00002320462360FFF7FFFD2046034A0449F1
:1045CC00BDE8104000F054BC68E6032040E6032030
:1045DC0095450D00F8B506460D468F180024BD42D2
:1045EC000CD0336815F8011B9B6830469847031EA6
:1045FC0001DB1C44F3E7002C08BF1C462046F8BD29
:10460C0013B50446084659B1019100F083FC2368A8
:10461C000199DB680246204602B0BDE810401847FD
:10462C0002B010BD03689B68184738B50D210546CC
:10463C00FFF7F8FF0A2104462846FFF7F3FF204452
:10464C0038BD38B50546FFF7EDFF04462846FFF7A1
:10465C00ECFF204438BD30B58BB000238DF82430EE
:10466C00012A98BF0A2209AC0D46B1FBF2F101FBFD
:10467C00125303F0FF03092B94BF30333733DBB2F3
:10468C00AA4204F8013DEFD92146FFF7B9FF0BB060
:10469C0030BD002340681A461946FFF7B9BE00002A
:1046AC00014B024A1A6070476CE60320804F0D00E4
:1046BC00024B1A68024B1A60704700BFD8E5032002
:1046CC0070E603200021FFF75FBE10B50446FFF72C
:1046DC0063FF204610BD00000348044A0449002330
:1046EC00836000F0C5BB00BF74E6032040E60320E6
:1046FC00D7460D00014B1860704700BFDCE5032066
:10470C0008B50B4B43B100F05FF903681B69984780
:10471C00002801DDAFF30080064B43B100F0D2F965
:10472C0003681B699847002801DDAFF3008008BDC2
:10473C00000000000000000008B5FFF7E1FFFFF7E4
:10474C0033FD014B186008BDD4E703200248034A2F
:10475C000349121A00F0A4BB00F4032004F4032054
:10476C00E0500D0007B5002300931A466FF0770157
:10477C00FFF724FE03B05DF804FB000007B5438887
:10478C000A2B08D0502B0BD1094B1B684BB103B033
:10479C005DF804EB1847FFF7E5FF03B05DF804FB89
:1047AC00002300931A466FF07701FFF707FEF4E73A
:1047BC0088E6032038B5124C1248134D0021FFF740
:1047CC007FFE2368AB42114B0CBF012200221A70F2
:1047DC0002D0FFF7BBFF2560FFF7DEFC044600F0BC
:1047EC0075FB0B4B13B12046AFF30080002108483A
:1047FC00FFF74EFEBDE8384006480021FFF7D4BD58
:10480C0000F4032001470D001E1C279A84E60320A8
:10481C000000000089470D00704710B518210446B0
:10482C0000F02BFB204610BDF0B5037D062B8DB0A0
:10483C000E4600F104074FF0000412D000F10805F9
:10484C0015F8011D0A223046FFF705FFAF4204445C
:10485C0019D0002CF4D02E213046FFF7E3FE04448F
:10486C00EEE72F236A4639460A208DF80040FFF701
:10487C00B3FC684600F04EFB33680246DB686946C1
:10488C0030469847044620460DB0F0BD10B5054B98
:10489C000446112240F8043B002100F00FFB204697
:1048AC0010BD00BFA84F0D000346074A10B543F8D2
:1048BC00042B01F1100251F8044B43F8044B9142C4
:1048CC00F9D10A781A7010BDA84F0D0010B59DF8DB
:1048DC00084044EA032343EA024242EA016104230A
:1048EC004160037510BD000013B5054B0360CB7818
:1048FC0000938B784A780978FFF7E8FF02B010BD77
:10490C00A84F0D0041747047704708B50021007C1A
:10491C00FFF712FD40EAE07008BD08B50121007CEC
:10492C00FFF70AFD40EAE07008BD08B5007CFFF710
:10493C00FBFC20EAE07008BD08B5007CFFF7ECFC3E
:10494C0020EAE07008BD13B50446007C0191FFF726
:10495C00EBFC0028019901DC607C20B1207CFFF786
:10496C00F3FC20EAE07002B010BD007CFFF7F4BC51
:10497C0010B51421044600F080FA204610BD00004A
:10498C0010B54FF47A73044608460021C4E90113AC
:10499C00044B23600123207463741146FFF7ACFCB5
:1049AC00204610BDBC4F0D00007C0022FFF7ACBCB4
:1049BC00007CFFF7D9BC10B514220446002100F08E
:1049CC007DFA204610BD000010B5104C88B003A82D
:1049DC00FFF7F1FF2178BFF35B8F11F0010111D1CB
:1049EC0020460191FFF753FB019958B103AA0848DF
:1049FC00FFF7C6FF2046FFF74FFB064A064904485F
:104A0C0000F036FA024808B010BD00BF8CE6032057
:104A1C0090E6032040E6032015490D0070474174D1
:104A2C00704708B5007CFFF70FFC20EAE07008BD6A
:104A3C0008B5007CFFF7E8FB20EAE07008BD08B57C
:104A4C00007CFFF7F1FB40EAE07008BD08B5007C84
:104A5C00FFF7E2FB40EAE07008BD007CFFF7ECBB1F
:104A6C0037B5457C04462DB1207C03B0BDE8304001
:104A7C00FFF7C2BB007C0191FFF7E6FB0028019910
:104A8C00F2DC284603B030BD10B51421044600F00A
:104A9C00F4F9204610BD000010B54FF0000C044690
:104AAC00084611464FF47A72C4E901C2044A2260E6
:104ABC000122207462741A46FFF796FB204610BD43
:104ACC00EC4F0D0013B50E4C2178BFF35B8F11F03A
:104ADC00010112D120460191FFF7D9FA019960B179
:104AEC00084A094B0948FFF7D7FF2046FFF7D4FACD
:104AFC00074A0849054800F0BBF9044802B010BD4C
:104B0C00A4E60320A8E603202CE70320B0E703204B
:104B1C0040E60320294A0D007047F8B506461546B5
:104B2C000C468F18BC4206D0336814F8011B9B68E6
:104B3C0030469847F6E72846F8BD007C0022FFF780
:104B4C00A3BB007C0021FFF7A7BB007C0021FFF773
:104B5C00ABBB007C0021FFF7AFBB007C0021FFF753
:104B6C00B3BB10B51421044600F087F9204610BDE4
:104B7C0010B54FF47A73044608460021C4E90113BA
:104B8C00034B236020741146FFF7A6FB204610BD93
:104B9C001C500D000023007C1A461946FFF75CBB25
:104BAC007FB500221423CDE90122ADF804300B7837
:104BBC008DF808304B680393CB680493007C0B7A18
:104BCC00059301A9FFF790FB07B05DF804FB1FB537
:104BDC00003B8DF800104FF06401039118BF0123C6
:104BEC00694601928DF80830FFF7DAFF05B05DF8E1
:104BFC0004FB0123FFF7EBBF007C0022FFF734BB63
:104C0C00C9B2FFF7F9BF007C0022FFF735BB0121C9
:104C1C00FFF7F9BF002240681146FFF7F1BB0022F5
:104C2C0040681146FFF70CBC002240681146FFF7A4
:104C3C0017BC40680022FFF70BBC4068002281F0D3
:104C4C000101FFF7F5BB002340681A461946FFF730
:104C5C00E7BB002240681146FFF7C2BB4068002248
:104C6C000221FFF7C5BB002340681A46FFF7B0BB13
:104C7C00024B04225A60024A1A607047C4E70320B0
:104C8C0044500D00002340681A46FFF7A1BB406852
:104C9C0000220221FFF7ACBB002240681146FFF74F
:104CAC009FBB002240681146FFF7AABB0023406857
:104CBC001A461946FFF7ACBB002340681A46194642
:104CCC00FFF7AEBB40680021FFF7D2BB4068002164
:104CDC00FFF7D6BB4068002281F00101FFF7A8BBAB
:104CEC0040680022FFF7B4BB002240681146FFF772
:104CFC00B7BB002240681146FFF7A2BB2DE9F04379
:104D0C00002495B016460D460746FFF7BFFD214619
:104D1C0018220EA8009400F0D1F84023CDE90C34F1
:104D2C0021466B460CAA3046FFF72EFA04460028A3
:104D3C004CD1024601216868FFF762FB02218046D4
:104D4C0022466868FFF75CFB009E81462146002ED8
:104D5C003CD000293AD17368022B03D00A2B11D016
:104D6C00F669F4E7B8F1000F0AD0716906A80431AE
:104D7C0007ADFFF7B9FD0FCD3C1D0FC42B68237099
:104D8C004146EDE7B9F1000F01D14946E8E77469F6
:104D9C00102201A800F092F806238DF8143001AD12
:104DAC0004F108031834186859682A4603C20833FA
:104DBC00A3421546F7D101A906A807ADFFF774FD6C
:104DCC000FCD3C1D0FC42B682370DEE70098FFF756
:104DDC00D3F9384615B0BDE8F0830000024B034A06
:104DEC001A6000225A607047CCE7032080500D00F7
:104DFC0038B50023202543801423044603808560A6
:104E0C0005610649284600F03AF8044960602846D6
:104E1C0000F035F8E060204638BD00BFB4500D00FE
:104E2C0030B50F4D2978BFF35B8F11F0010487B0BB
:104E3C0013D12846FFF72BF978B101A8FFF7D8FF5B
:104E4C0001AA21460748FFF793FE2846FFF724F9ED
:104E5C00054A0649034800F00BF8024807B030BD7C
:104E6C00D8E70320DCE7032040E60320254B0D00A8
:104E7C000B460146184600F005B8FFF706B9FFF7D8
:104E8C0002B9000010B5054C13462CB10A46014678
:104E9C000220AFF3008010BD2046FCE700000000AC
:104EAC000A44914200F1FF3300D1704710B511F85C
:104EBC00014B03F8014F9142F9D110BD0244034656
:104ECC00934200D1704703F8011BF9E738B50D4B3D
:104EDC001D68AB6B04467BB91820FFF7E1FA0A4A50
:104EEC000A4BA863C0E90023094B83600B23838121
:104EFC0001220023C0E90423AB6B00221C615A6120
:104F0C0038BD00BFDCE503200E33CDAB34126DE6AB
:104F1C00ECDE0500034613F8012B002AFBD1181A0E
:104F2C00013870471D400D0059400D0081400D00A7
:104F3C0085400D0000000000000000000000000093
:104F4C003B450D0031450D0027450D001D450D005D
:104F5C0011450D0005450D00D14C0D00D94C0D002F
:104F6C00F9440D00F1440D00E7440D00DD440D0043
:104F7C00094D0D006170700025592D256D2D25648E
:104F8C005425483A254D3A2553257A0061736374AC
:104F9C00696D6500000000000000000035480D0040
:104FAC0025480D0027480D000000000000000000FF
:104FBC0015490D007D490D0053490D00E1450D00CB
:104FCC0045490D0017490D0027490D0077490D0083
:104FDC0037490D0011490D000000000000000000D1
:104FEC00294A0D00954A0D006D4A0D00E1450D0052
:104FFC003D4A0D00594A0D004B4A0D00674A0D0001
:10500C002B4A0D002F4A0D0000000000000000008C
:10501C00254B0D006F4B0D00474B0D00274B0D0022
:10502C004F4B0D00574B0D005F4B0D00674B0D00A8
:10503C000000000000000000734C0D00694C0D00D6
:10504C005F4C0D00214C0D009F460D00534C0D0084
:10505C00D14C0D00D94C0D00474C0D003F4C0D00B0
:10506C00354C0D002B4C0D00094D0D0000000000BF
:10507C0000000000914C0D009B4C0D00A54C0D0048
:10508C00AF4C0D00B94C0D00C54C0D00D14C0D00B2
:10509C00D94C0D00E14C0D00ED4C0D00F54C0D0004
:1050AC00FF4C0D00094D0D000000000049410D00A2
:1050BC0045450D0059450D00B9450D00AD460D0097
:1050CC00BD460D00E5460D007D4C0D00E94D0D0073
:0450DC0000000000D0
:0450E00000000000CC
:1050E400984F0D00E0E503200000000000000000E0
:1050F40000000000000000000000000000000000AC
:10510400000000000000000000000000000000009B
:10511400000000000000000000000000000000008B
:10512400000000000000000000000000000000007B
:10513400000000000000000000000000000000006B
:08514400000000000000000063
:10514C00FFFFFFFF00000102030405060708090A20
:10515C000B0C0D0E0F101112131415161718191A1B
:08516C001B1C1D1E1F20280062
:045174007856341223
:04000003D000401CCD
:00000001FF
